:020000040800F2
:100000000009002011020008E9240008A1240008CA
:10001000C9240008A1240008C12400081302000814
:100020001302000813020008130200080535000837
:1000300013020008130200081302000859450008C3
:10004000130200081302000813020008130200083C
:100050001302000813020008054200082D420008A0
:10006000554200087D420008A5420008130200081E
:10007000130200081302000813020008130200080C
:100080001302000813020008130200085524000898
:10009000812400089124000813020008CD420008C2
:1000A00013020008130200081302000813020008DC
:1000B00013020008130200081302000813020008CC
:1000C00013020008130200081302000813020008BC
:1000D00013020008A1430008B5430008C943000803
:1000E000314300081302000813020008130200083D
:1000F000130200081302000813020008130200088C
:10010000130200081302000813020008130200087B
:10011000130200081302000813020008130200086B
:10012000130200081302000813020008130200085B
:10013000130200081302000813020008130200084B
:10014000130200081302000813020008130200083B
:10015000130200081302000813020008130200082B
:10016000130200081302000813020008130200081B
:10017000130200081302000813020008130200080B
:1001800013020008130200081302000813020008FB
:1001900013020008130200081302000813020008EB
:1001A00013020008130200081302000813020008DB
:1001B00013020008130200081302000813020008CB
:1001C00013020008130200081302000813020008BB
:1001D00013020008130200081302000813020008AB
:1001E000130200081302000813020008130200089B
:1001F000130200081302000813020008130200088B
:1002000035100008000000000000000000000000A1
:1002100002E000F000F8FEE772B6374880F3088885
:10022000364880F3098836483649086040F20000B5
:10023000CCF200004EF63471CEF200010860BFF33C
:100240004F8FBFF36F8F40F20000C0F2F0004EF608
:100250008851CEF200010860BFF34F8FBFF36F8F5C
:100260004FF00000E1EE100A4EF63C71CEF20001B4
:100270000860062080F31488BFF36F8F03F0CCFD75
:1002800003F0AAFE4FF055301F491B4A91423CBF74
:1002900041F8040BFAE71D49184A91423CBF41F866
:1002A000040BFAE71A491B4A1B4B9A423EBF51F80E
:1002B000040B42F8040BF8E700201849184A914251
:1002C0003CBF41F8040BFAE703F0E4FD03F0D8FE6D
:1002D000144C154DAC4203DA54F8041B8847F9E777
:1002E00000F042F8114C124DAC4203DA54F8041BF2
:1002F0008847F9E703F0CCBD000900200011002079
:100300000000000808ED00E00001002000090020C6
:10031000D84D00080011002080110020801100201D
:10032000143D002000020008040200080402000836
:10033000040200082DE9F04F2DED108AC1F80CD011
:10034000D0F80CD0BDEC108ABDE8F08F002383F309
:1003500011882846A047002003F03CFAFEE703F08E
:10036000C5F900DFFEE70000F8B500F075FE03F008
:10037000CDFC074603F03CFD0546B8BB274B9F422A
:1003800034D001339F4234D0254B27F0FF029A42EC
:1003900032D1F8B200F070FC2E4642F2107400F038
:1003A00071FC08B10024264601F07EF940B3032019
:1003B00000F03AF80024264635B11A4B9F4203D08C
:1003C00003F00EFD00242646002003F0A9FC0EB128
:1003D00000F040F800F0C2FC02F08EF80546ACB91F
:1003E00000F004FD012003F0FBF9F8E72E4600249D
:1003F000D5E704460126D2E706464FF47A74CEE7E5
:10040000002CD9D04FF47A740126D5E702F074F8A5
:10041000431BA342E4D900F01DF8DDE7010007B05B
:10042000000008B0263A09B0084B187003280CD811
:10043000DFE800F008050208022000F069BE022093
:1004400000F05EBE024B00225A607047801100200F
:1004500084110020F8B501F027F930B13C4B03229C
:100460001A703C4B00225A60F8BD3B4B3B4A1C467D
:1004700019680131F8D004339342F9D16268384BDE
:100480009A42F1D9374B9B6803F1006303F580333F
:100490009A42E9D203F078FC03F08AFC002000F0D5
:1004A000F5FD0220FFF7C0FF2F4B00211A6C1964E5
:1004B0001A6E19661A6E5A6C59645A6E59665B6EDA
:1004C00072B64FF0E023C3F8084DD4E90004BFF33F
:1004D0004F8FBFF36F8F254AC2F88410BFF34F8F41
:1004E000536923F480335361BFF34F8FD2F88030C8
:1004F000C3F3C905C3F34E335B0143F6E07603EA69
:10050000060C29464CEA81770139C2F87472F9D297
:10051000203B13F1200FF2D1BFF34F8FBFF36F8F4A
:10052000BFF34F8FBFF36F8F536923F400335361D1
:100530000023C2F85032BFF34F8FBFF36F8F3023C9
:1005400083F31188854680F3088820478CE700BF35
:100550008011002084110020000001082000010803
:10056000FFFF0008001100200038024000ED00E00D
:10057000094A136849F2690099B21B0C00FB013368
:100580001360064B186844F2506182B2000C01FB04
:100590000200186080B2704718110020141100206A
:1005A00010B500211022044600F0CEFD034B03CB12
:1005B000206061601868A06010BD00BF107AF01F55
:1005C0002DE9F041ADF5507D0DF13C086EAC40F2E7
:1005D000751207460D4610A80021C8F8001000F05B
:1005E000B3FD4FF4C4720021204600F0ADFD01F0D0
:1005F00083FF254B4FF47A72B0FBF2F0186093E85A
:100600000700022384E807000DF5ED702382FFF751
:10061000C7FF42F24E131D49238407A804F0D6FAFF
:100620001C2384F832310DF2EB226B440DF1340CB3
:100630001E4603CE664510605160334602F1080243
:10064000F6D13068106041460122204600F0C8FD16
:1006500000230393AB7E029305F11903019380B24B
:100660000123CDE904800093E97E05A3D3E90023AB
:10067000384602F017FB0DF5507DBDE8F08100BF54
:100680009E6AC421818A46EE8C110020DC4B000852
:100690002DE9F0412C4C237ADAB080460D465BBB45
:1006A00027A9284600F0C2FE0746002842D19DF83F
:1006B0009D60C82E3ED801464FF4A662204600F049
:1006C00043FD4FF48073C4F8F8314FF40073C4F85D
:1006D0000C334FF44073C4F8203432460DF19E01C0
:1006E00004F1090000F01EFD26449DF89C3077724D
:1006F00023720BB9EB7E23728122002106AC27A85E
:1007000000F022FD0122214627A800F0D5FE00239B
:100710000393AB7E029305F1190380B20193282362
:10072000CDE904400093E97E05A3D3E900234046C8
:1007300002F0B8FA5AB0BDE8F08100BFAFF3008014
:1007400026417272DF25D7B7B0320020F0B5254EB2
:100750004FF48A7505FB0065F1B096F8D83085F83E
:10076000DC300024D822214685F8E8403AA800F081
:10077000EBFC06F1090000F0DFFCD5F8E4308DF861
:10078000F000C2B206AF06F109010DF1F100CDE9AA
:100790003A3400F0C7FC394601223AA800F0C2FE04
:1007A00080B2CDE9047008230127CDE9023706F1B4
:1007B000D803019330230093317A0B4807A3D3E980
:1007C000002302F06FFAA04206DD01F095FEC5F8A5
:1007D000E000384671B0F0BD2046FBE778F6339F65
:1007E00093CACD8DB0320020A42100202DE9F04124
:1007F0001D4D1E4E1E4F86B0284602F07FFA03465E
:1008000058B30024CDE90344ADF81440027B8DF8C1
:10081000142099684068029403AA03C21B68DFF899
:10082000548043F00043029301F068FE821941F1C5
:100830000003009402A9384601F014F9A04205DD36
:10084000284602F05FFA88F80040D5E798F80030B3
:10085000072B05D8013388F8003006B0BDE8F081D9
:10086000014802F04FFAF8E7A421002040420F00AF
:10087000D8210020E537002070B50D4614461E46ED
:1008800002F06CF950B9022E10D1012C0ED112A336
:10089000D3E90023C5E90023012007E0282C10D06C
:1008A00005D8012C09D0052C0FD0002070BD302CAC
:1008B000FBD10BA3D3E90023ECE70BA3D3E900237F
:1008C000E8E70BA3D3E90023E4E70BA3D3E9002374
:1008D000E0E700BFAFF30080401DA12026812A0B76
:1008E00078F6339F93CACD8D9E6AC421818A46EEE5
:1008F00026417272DF25D7B7F017304A39059E5668
:1009000038B505460E4C0021013500F0E1FBA4F896
:100910002C55B4F82C0500F0C3FB78B1B4F82C05C5
:1009200000F0CEFB014648B9B4F82C0500F0D0FB2E
:10093000B4F82C350133A4F82C35EAE738BD00BFF4
:10094000B032002010B50A4B0A4A1A6003F58053F2
:1009500093F860203AB9DC6D2CB1204600F022FFFC
:10096000204604F073F8BDE81040034800F01ABFB9
:10097000D8210020384C0008203200202DE9F04F0B
:100980008FB000AF05460C4602F0E8F8002849D1C8
:10099000237E022B1BD1E38A012B18D101F0ACFD81
:1009A0000646FFF7E5FD03464FF4C870DFF8C48242
:1009B000B3FBF0F206F5167602FB103316FA83F35A
:1009C000C8F80030E37E33B9A34B00221A703C37DD
:1009D000BD46BDE8F08F07F12401204600F0DAFCA7
:1009E0000028F4D107F11400FFF7DAFD97F826404C
:1009F00007F11401224607F1270004F071F80028DE
:100A0000E2D10F2C08D8944B1C70D8F80030A3F515
:100A10001673C8F80030DAE797F82410284602F079
:100A200095F8D4E7E38A282B2BD010D8012B23D0BC
:100A3000052BCCD1BFF34F8F8849894BCA6802F48C
:100A4000E0621343CB60BFF34F8F00BFFDE7302B55
:100A5000BDD1844EE17E327A9142B8D1607E31467A
:100A6000002291F8DC50854200F0A5800132042A72
:100A700001F58A71F5D1AAE721462846FFF7A0FDC6
:100A8000A5E721462846FFF703FEA0E7B2F8EC50A1
:100A90007B6005F103094FEA99094FEA8902D11DEC
:100AA000C908A8EBC1039D46EB460021584600F05B
:100AB0004BFB04F1EE012A463144584600F032FB6C
:100AC0007B6813B9012000F0E1FA96F8D20000F03B
:100AD000E7FA044630B9307200F002FB204600F01D
:100AE000D5FAB1E0D6F8D4203AB996F8D200B6F8E3
:100AF0002C25824201D8FFF703FFD6F8D4202A44E0
:100B0000944208D296F8D200B6F82C2501308242E1
:100B100001D8FFF7F5FE70685FFA89F2594600F0D8
:100B20001BFB08B9C54679E0726896F8D2002A44E2
:100B30007260D6F8D42005EB0209C6F8D49000F014
:100B4000AFFA814509D396F8D220D6F8D400013205
:100B5000001B86F8D220C6F8D400FF2D0FD8002441
:100B6000347200F0BDFA204600F090FA00F09CFDCF
:100B70003D4B188108B9FFF76DFCC54627E7BB68F8
:100B800096F8D9000AFB0362FB68D2F8E41082F8F9
:100B9000E83001F58061C2F8E030C2F8E410FFF7F8
:100BA000D5FDFFF723FE96F8D920013202F00302AB
:100BB00086F8D920B6E74FF48A7A0AFB02F505F1E8
:100BC000EA013144204600F0E1FCF86000287FF49F
:100BD000FEAE3544012285F8E82001F08DFCD5F801
:100BE000E020D6ED007ADFED216A801A192838BF9F
:100BF000192040F6B832904228BF1046B8EE677A06
:100C000007EE900AF8EEE77A67EEA67ADFED186A4B
:100C1000E7EE267AFCEEE77AC6ED007A96F8D93050
:100C2000BB60BA6873680AFB02F4321992F8E810E4
:100C300059B1D2F8E4108B42E8463FF427AF0021C7
:100C400082F8E810C2F8E010C5467368064A9B0AAD
:100C500001331381BBE600BF9D21002000ED00E0C1
:100C60000400FA05B03200208C110020CDCCCC3D20
:100C70006666663FA0210020014B1870704700BFD8
:100C80009811002030B54FF000542B4B22689A4247
:100C900085B007D003F0B6F8044620BB00242046F8
:100CA00005B030BD254B627D25481A70237D037247
:100CB0004FF48073C0F8F8314FF40073C0F80C3370
:100CC00000254FF44073C0F820341E49C0F8E450AA
:100CD000C922093000F026FA2046E022294600F019
:100CE00033FA0124DBE7184A184D136C43F0007304
:100CF0001364AA6D164B9A42D0D12B6E013B7E2B0A
:100D0000CCD8144A07CA01AB83E807001846032170
:100D100000F098FC6B6D83424FF00003BED12A6D4A
:100D20008A4201BFAB65054B2A6E1A7003BF0A4B9E
:100D3000EA6D1A601C46B2E79AAD44C598110020CE
:100D4000B03200201600002000380240006600404B
:100D50005041A0B0586600401011002037B51A4D20
:100D600000F0A2FC02236B71184B28811968184807
:100D7000012201F05DFA00230193164B16490093FE
:100D80001648174B4FF4805201F0B8FE154B1978F6
:100D900011B1124801F0DAFE01F0AEFB0446FFF794
:100DA000E7FB4FF4C873B0FBF3F202FB130304F547
:100DB000167010FA83F00C4B186003F019F808B1A4
:100DC0000F232B8103B030BD8C11002010110020A7
:100DD000D8210020790800089C110020A4210020BF
:100DE0007D09000898110020A02100202DE9F04F76
:100DF0002DED028B0FF23029D9E90089814C93B097
:100E00000BAE9FED7C8BFFF7F1FC7F4FDFF820A24C
:100E100000230A93ADF834300B9373604FF0000B4E
:100E20005B468DED008B01250DF11D0207A93846AB
:100E30008DF81C508DF81DB001F0A8F99DF81C30FC
:100E4000002B40F0A280204601F088FE06460028D4
:100E500045D16E4F01F050FB3B6898423FD301F003
:100E60004BFB8246FFF784FB4FF4C873B0FBF3F2F1
:100E700002FB13030AF5167010FA83F03860644F12
:100E800097F800B0CBF1100ABBF1000F14BF334646
:100E90002B465FFA8AFA0EA88DF82830FFF780FB00
:100EA000BAF1060F28BF4FF0060A0EAB03EB0B0199
:100EB00052460DF1290000F035F90AAB03931823CF
:100EC00002930AF10102534BD2B2CDE900530492CE
:100ED00020464AA3D3E9002301F086FE3E7001F0CC
:100EE0000BFB4D4A4D4D1368C31AB3F57A7F2ED3D1
:100EF000106001F003FB02460B46204601F00CFF98
:100F0000204601F02BFE10B32B7A454E002B14BF68
:100F100003230223737101F0EFFA0EAF4FF47A73DB
:100F20000122B0FBF3F039463060304600F00AFA97
:100F3000182302933B4B019380B240F25513CDE945
:100F40000370009342464B46204601F04DFE2B7A3B
:100F5000B3B101F0D1FA002607464FF48A7A95F82A
:100F6000D900304400F003000AFB005393F8E82056
:100F70007AB30136042EF2D12B7A002B7FF440AFE6
:100F800013B0BDEC028BBDE8F08FDAF8143083F0BB
:100F90001003CAF81430594610220EA800F0D4F8F5
:100FA0000DF11E0308AA0AA9384600F05BFE96E878
:100FB00003000FAB83E803009DF834308DF8443014
:100FC0000A9B0E930EA9DDE90823204602F078F86B
:100FD00024E7D3F8E02042B12B68FA2B38BFFA237C
:100FE000BA1A0533B2EB430FC3D3FFF7AFFB0028A8
:100FF000BFD1C1E70000000000000000401DA1209B
:1010000026812A0BA4210020D8210020A021002025
:101010009D2100209C210020E0370020B0320020DC
:101020008C110020E4370020F1C6A7C1D068080F5A
:101030000000024008B5054800F0B0FEBDE80840D9
:10104000034A0449002003F0FBBC00BFD821002064
:10105000203800204509000870B502F0B5FC094EA3
:10106000094D3080002428683388834208D902F073
:10107000A5FC2B6804440133B4F5803F2B60F2D308
:1010800070BD00BF14380020E837002002F04CBDCE
:1010900000F10060920000F5803002F0DBBC00003F
:1010A000054B1A68054B1B889B1A834202D91044D2
:1010B00002F084BC00207047E8370020143800207C
:1010C000024B1B68184402F081BC00BFE8370020C7
:1010D000024B1B68184402F091BC00BFE8370020A7
:1010E000064991F8243033B10023086A81F824308E
:1010F0000822FFF7CDBF0120704700BFEC3700206A
:10110000022802BF014B10229A6170470000024082
:10111000022802BF024B4FF480129A61704700BF51
:101120000000024010B50023934203D0CC5CC454AD
:101130000133F9E710BD000003460246D01A12F948
:10114000011B0029FAD1704702440346934202D0A2
:1011500003F8011BFAE770472DE9F8431F4D1446C9
:1011600095F824200746884652BBDFF870909CB360
:1011700095F824302BB92022FF2148462F62FFF733
:10118000E3FF95F82400C0F10802A24228BF2246DE
:10119000D6B24146920005EB8000FFF7C3FF95F8F9
:1011A0002430A41B1E44F6B2082E17449044E4B227
:1011B00085F82460DBD1FFF793FF0028D7D108E042
:1011C0002B6A03EB82038342CFD0FFF789FF00280D
:1011D000CBD10020BDE8F8830120FBE7EC370020ED
:1011E0002DE9F3470D46044600219046284640F27B
:1011F0007912FFF7A9FF234620220021284601F09B
:1012000001FF231D02222021284601F0FBFE631D61
:1012100003222221284601F0F5FEA31D03222521E9
:10122000284601F0EFFE04F1080310222821284689
:1012300001F0E8FE04F1100308223821284601F0ED
:10124000E1FE04F1110308224021284601F0DAFEF4
:1012500004F1120308224821284601F0D3FE04F1CC
:10126000140320225021284601F0CCFE04F118037B
:1012700040227021284601F0C5FE04F12003082217
:10128000B021284601F0BEFE04F121030822B82156
:10129000284601F0B7FE04F12207C0263B4631463E
:1012A00008222846083601F0ADFEB6F5A07F07F10A
:1012B0000107F3D194F832308DF8073031460DF143
:1012C00007030822284601F09DFE002604F1330A98
:1012D0009DF807304FEAC6099E4209F5A47720D34E
:1012E00094F83231502B28BF50238DF80730B8F1D5
:1012F000000F08D139460DF107030722284601F0F7
:1013000081FE09F24F17002604F233149DF80730CE
:101310009E4207EBC6010DD30731C80802B0BDE8F5
:10132000F0870AEB060308223946284601F06AFED8
:101330000136CDE7A3190822284601F063FE0136E5
:10134000E4E7000013B50446084600210160234687
:10135000C0F803102022019001F054FE0198231DD3
:101360000222202101F04EFE0198631D032222215A
:1013700001F048FE0198A31D0322252101F042FE41
:10138000019804F108031022282101F03BFE0720F8
:1013900002B010BDF7B5047F05460E462CB1838A16
:1013A000122B02D9012003B0F0BD002319460722F9
:1013B0000096284601F0EAFC731C009301220023EA
:1013C0000721284601F0E2FCD4B9B31C00930522A2
:1013D00023460821284601F0D9FC0D24B378102BB0
:1013E000E0D83746B278BB1B934210D32B7FA88A34
:1013F0000734E408B3B9844294BF00200120D2E747
:10140000AB8ADB00083BDB08B3700824E6E7FB1C73
:101410000093214600230822284601F0B7FC083437
:101420000137DFE7201A18BF0120BCE7F7B5047FBA
:1014300005460E462CB1838ACA2B02D9012003B07F
:10144000F0BD0023194600960822284601F09EFCB4
:10145000731CD4B90822009311462346284601F094
:1014600095FC10247378C82BE8D8012372785F1C90
:10147000013B934210D32B7FA88A0734E408B3B909
:10148000844294BF00200120D9E7AB8ADB00083BEF
:10149000DB0873700824E5E7F31900932146002365
:1014A0000822284601F072FC08343B46DEE7201A89
:1014B00018BF0120C3E70000F7B50D460446002120
:1014C000164628468122FFF73FFE234608220021C8
:1014D000284601F097FD94F901206378002AB8BFEF
:1014E0007F238DF807309EB90DF1070307220821ED
:1014F000284601F087FD0F27002602349DF80730AB
:101500009E4207EBC60105D30731C80803B0F0BD02
:101510000827F1E7A3190822284601F073FD0136D8
:10152000ECE70000F7B50E460546002114463046AC
:10153000CE22FFF709FE2B4628220021304601F07B
:1015400061FD2B7AC82B28BFC8238DF807308CB9D2
:101550000DF1070308222821304601F053FD302405
:101560002F469DF807207B1B934205D3E01DC00842
:1015700003B0F0BD2824F3E707F109032146082250
:10158000304601F03FFD08340137EAE7F7B5047F44
:1015900005460E4634B1838AB3F5827F02D9012015
:1015A00003B0F0BD0096012310220021284601F06F
:1015B000EDFBDCB9B31C0093092223461021284619
:1015C00001F0E4FB19247388B3F5807FE7D8374630
:1015D0007288BB1B934210D32B7FA88A0734E40880
:1015E000B3B9844294BF00200120D9E7AB8ADB0065
:1015F000103BDB0873801024E5E73B1D0093214678
:1016000000230822284601F0C1FB08340137DFE738
:10161000201A18BF0120C3E730B5094D0A44914292
:101620000DD011F8013B5840082340F30004013B62
:101630002C4013F0FF0384EA5000F6D1EFE730BDF1
:101640002083B8EDF7B54FF0FF33DFF854C0DFF873
:1016500054E000EB81011A4688421CD050F8044B3C
:10166000019401AF042417F8015B82EA05620825A2
:10167000DB18164605F1FF355241002EBCBF83EA48
:101680000C0382EA0E0215F0FF05F1D1013C14F0C3
:10169000FF04E8D1E0E7D843D14303B0F0BD00BF79
:1016A0009336EAA9EBE1F042F7B5384A1068516881
:1016B0006B4603C36A4636493648082303F020FACE
:1016C0000446002833D10A25334A106851686B4616
:1016D00003C36A4631492F48082303F011FA044630
:1016E000002849D00369B3F5E02F45D8B0F866105B
:1016F00044F6216291423FD1294A024402F15C0141
:101700008B4239D35C3B234900209E1AFFF784FFAC
:101710003246074604F164010020FFF77DFFA3680D
:101720009F4229D1E368984208BF002524E003695D
:10173000B3F5E02F27D8418B44F62162914220D1A6
:10174000174A024402F110018B4218D3103B114991
:1017500000209D1AFFF760FF2A46064604F1180193
:101760000020FFF759FFA3689E4202D1E368984228
:1017700001D00D25A8E70025284603B0F0BD1025AF
:10178000A2E70C25A0E70B259EE700BFFC4B000855
:10179000DCFF060000000108054C000890FF060071
:1017A0000800FFF710B5037C044613B9006803F086
:1017B0008FF9204610BD00000023BFF35B8FC3608C
:1017C000BFF35B8FBFF35B8F8360BFF35B8F7047AB
:1017D000BFF35B8F0068BFF35B8F704770B5054642
:1017E0000C30FFF7F5FF05F1080604463046FFF719
:1017F000EFFFA04206D930466D68FFF7E9FF2544A8
:10180000281A70BD3046FFF7E3FF201AF9E7000001
:1018100070B50546406898B105F10800FFF7D8FF9C
:1018200005F10C0604463046FFF7D2FF84423046ED
:1018300094BF6D680025FFF7CBFF013C2C44201AB4
:1018400070BD000038B50C460546FFF7C7FFA04243
:1018500010D305F10800FFF7BBFF04446868B4FB30
:10186000F0F100FB1144BFF35B8F0120AC60BFF3CC
:101870005B8F38BD0020FCE72DE9F0411446074698
:101880000D46FFF7C5FF844228BF0446D4B1B846D1
:1018900058F80C6B4046FFF79BFF304428604046E9
:1018A0007E68FFF795FF331A9C4203D86C600120D5
:1018B000BDE8F0816B60A41B3B68AB602044E8602E
:1018C0000220F5E72046F3E738B50C460546FFF75A
:1018D0009FFFA04210D305F10C00FFF779FF0444ED
:1018E0006868B4FBF0F100FB1144BFF35B8F01208B
:1018F000EC60BFF35B8F38BD0020FCE72DE9FF41B2
:10190000884669460746FFF7B7FF6C4606B204EB08
:10191000C6060025B44209D06268206808EB0501BC
:10192000FFF700FC636808341D44F3E72946384696
:10193000FFF7CAFF284604B0BDE8F081F8B50546B8
:101940000C300F46FFF744FF05F108060446304609
:10195000FFF73EFFA042304688BF6C68FFF738FFB4
:10196000201A386020B130462C68FFF731FF204440
:10197000F8BD000073B5144606460D46FFF72EFF6E
:10198000844228BF04460190DCB101A93046FFF72C
:10199000D5FF019B33B93268C5E90233C5E900249C
:1019A00001200CE09C4238BF0194286001986860D7
:1019B0008442F5D93368AB60241AEC60022002B08F
:1019C00070BD2046FBE700002DE9FF410F46694648
:1019D000FFF7D0FF6C4600B204EBC0050026AC4216
:1019E00009D0D4F8048054F8081BB8194246FFF710
:1019F00099FB4644F3E7304604B0BDE8F0810000AF
:101A000038B50546FFF7E0FF044601462846FFF7D4
:101A100019FF204638BD000010B4026854681A4609
:101A200023465DF8044B184700207047002070479C
:101A300070470000002070470E20704700F580506E
:101A400090F8C800C0F340007047000000F58050D7
:101A500090F9D0007047000000F58050C0F8CC101D
:101A600001207047F7B50C68BDF8207014F00054E1
:101A700070D10D7B082D6DD8302585F3118845690F
:101A8000AE6876010CD4AC68240108D4AC6814F0BC
:101A900080545DD184F31188204603B0F0BD012449
:101AA0000E6804F1180C002EB8BFF6004FEA0C1CAB
:101AB000B4BF46F00406760545F80C600E680FFAD0
:101AC00084FC16F0804F18BF05EB0C1E05EB0C1CB8
:101AD0001EBFDEF8806146F00206CEF880610E7B04
:101AE000CCF8846105EB04158E68C5F88C614E68EE
:101AF000C5F88861DCF8805145F00105CCF88051CB
:101B000000EB441641F268052E4405EB44150544EC
:101B1000C6E9002308350E4601F10C0C56F804EB1B
:101B200045F804EB6645F9D1843436882E8000EB05
:101B3000441407F00305267926F00B06354325717A
:101B4000002484F31188009700F0F8FC0120A4E73A
:101B50000224A5E74FF0FF309FE7000013B500F522
:101B600080540191E06DFFF753FE1F280AD90199B7
:101B7000E06D2022FFF7C2FEA0F120035842584139
:101B800002B010BD0020FBE708B5302383F31188B5
:101B900000F58050C06DFFF70FFE002383F311881E
:101BA00008BD0000002202608281426082607047AE
:101BB00010B500220023C0E900230023044603815E
:101BC0000C30FFF7EFFF204610BD0000F0B50546D2
:101BD00000F580500C4690F8C83013F0040FC3F3A2
:101BE000800108BF114661F3820304F1840680F886
:101BF000C83005EB461389B01B79D8072ED57AB3C8
:101C000019072DD46846FFF7D3FF05EB441303F5FE
:101C1000835303F1180703AA103318685968144650
:101C200003C40833BB422246F7D1186820609B8862
:101C3000A380DDE90E23CDE900230123ADF80830B0
:101C40002B686946DB6B2846984705EB46152B79D0
:101C50001A075CBF43F008032B7101E0002AF4D19E
:101C600009B0F0BD2DE9F0479A4688B0074688468E
:101C70009146302383F3118807F580546846FFF7B7
:101C800097FFE06DFFF7AAFD1F282AD9E06D2022FB
:101C90006946FFF7B5FE202823D103AD444605ABC6
:101CA0002E4603CE9E4220606160354604F1080452
:101CB000F6D130682060B388A380DDE90023C9E94C
:101CC0000023BDF80830AAF80030002383F3118800
:101CD00053464A464146384608B0BDE8F04700F052
:101CE0001BBC002080F3118808B0BDE8F08700001D
:101CF0002DE9F84F0023C0E90133254B044640F895
:101D0000183B0F46FFF74EFF04F12800FFF750FF86
:101D100004F1480804F58255464608353046203619
:101D2000FFF746FFAE42F9D104F580554FF48053DA
:101D30004FF00009C5E91339C5F848800123EE6565
:101D400004F5875804F58456C5F8549085F8583042
:101D500085F86030083608F108084FF0000A4FF0A7
:101D6000000B46E908ABA6F11800FFF71BFF203671
:101D700046F8289C4645F4D185F8D07017B105483F
:101D800000F0B4FB044B63612046BDE8F88F00BF50
:101D9000384C0008104C00080064004010B5044B9B
:101DA000197804464A1C1A70FFF7A2FF204610BD9E
:101DB0001C3800202DE9F04300294FD0284B29483A
:101DC000B0FBF1F099428CBF0A2311235D1EB0FBDA
:101DD000F3F703FB1703ECB22BB1022D2B46F5D81A
:101DE0000020BDE8F0837E1EB6F5806FF8D2C4EB0C
:101DF000C40C0CF103034FEAE308C3F3C703A4EBDD
:101E0000030E08F101094FF47A755FFA8EF008FBB2
:101E1000055559FA8EFEB5FBFEF5B5F5617FC1BFDC
:101E20000CF1FF33C3F3C703E01AC0B25C1C50FAD5
:101E300084F40C4D7C43B5FBF4F4A142D0D1013BBA
:101E4000DBB20F2BCCD80138C0B20728C8D800218C
:101E5000107116809170D3700120C2E70846C0E768
:101E60003F420F0080F9370370B505460E464FF428
:101E70007A746B695B6803F00103B3424FF00100B1
:101E800004D001F0ADFC013CF3D1204670BD000050
:101E900030B54269936913F0700F16D000230B4CD4
:101EA000936103F1840200EB421211794D0709D5C9
:101EB000890707D5416954F823508D60117941F0A5
:101EC000040111710133032BEBD130BD244C000808
:101ED00073B51D46436916469A68D207044609D56C
:101EE0009A6801219960C2F34002CDE900650021A2
:101EF000FFF76CFE63699A68D1050BD59A684FF4B9
:101F000080719960C2F34022CDE90065012120462D
:101F1000FFF75CFE63699A68D2030BD59A684FF4A9
:101F200080319960C2F34042CDE90065022120462C
:101F3000FFF74CFE04F58053D3F8CC0010B10368D2
:101F40001B699847204602B0BDE87040FFF7A0BF6C
:101F5000F8B504464669002972D106F10C073868C5
:101F6000800770D006EB01153868D5F8B00110F085
:101F7000040FD5F8B0011ABFC00840F00040400D72
:101F8000A061D5F8B0C11CF0020F1CBF40F080402A
:101F9000A061D5F8B40106EB011100F00F0084F840
:101FA0002400D1F8B8012077D1F8B801000A607791
:101FB000D1F8B801000CA077D1F8B801000EE07795
:101FC000D1F8BC0184F82000D1F8BC01000A84F8E3
:101FD0002100D1F8BC01000C84F82200D1F8BC111A
:101FE000090E84F823103821396004F1340004F11B
:101FF000180104F1240551F8046B40F8046BA94260
:10200000F9D109880180C4E90A23214600232386E7
:1020100051F8283B2046DB6B984704F5805393F832
:10202000C820D3F8CC0042F0040283F8C82010B1D5
:1020300003681B6998472046BDE8F840FFF728BFB2
:1020400006F110078BE7F8BD10B5044600F056FA0C
:1020500002460B4652EA030102D0013A63F1000343
:102060000449086820B12146BDE81040FFF770BF61
:1020700010BD00BF18380020F0B5302181F3118861
:10208000DFF848C000F583510831002404F18405CD
:1020900000EB45152E7977070ED4F6060CD5D1E95D
:1020A000007697429E4107D246695CF82470B7607B
:1020B0002E7946F004062E710134032C01F1200123
:1020C000E4D1002383F31188F0BD00BF244C000845
:1020D00008B5302383F31188FFF7DAFE002383F37A
:1020E000118808BDF8B543690546986800F0E050CE
:1020F000B0F1E05F0F4621D0F8B1302383F31188AF
:1021000005F583541034002606F1840305EB4313D0
:102110001B791A0706D50136032E04F12004F3D1EA
:10212000012007E05B07F6D42146384600F040FA6C
:102130000028F0D1002383F31188F8BD0120FCE7CB
:1021400008B5302383F3118800F58050C06DFFF788
:1021500045FB002383F3118843090CBF01200020B5
:1021600008BD0000F8B51D46002313700F46064653
:102170001446FFF7E5FF80F00100387025B12946CD
:102180003046FFF7AFFF2070F8BD00002DE9B841E1
:102190000C4615461F46804600F0B0F90B462178E4
:1021A000024609B9287850B14046FFF765FFFFF7AE
:1021B0008FFF3B462A462146FFF7D4FF0120BDE8AA
:1021C000B881000070B5302686F31188174B1A6C61
:1021D00042F000721A641A6A42F000721A621A6AB5
:1021E00022F000721A62002383F3118800F58054F4
:1021F00094F8C83013F0010516D1A9B186F31188FF
:102200000321132001F0E0F90321142001F0DCF98F
:102210000321152001F0D8F994F8C83043F00103E8
:1022200084F8C83085F3118870BD00BF00380240C3
:102230002DE9F04700F5805588B095F8D030012B96
:1022400004468846164600F28180814F57F82320C5
:102250000AB947F82300D7F800A0C4F80C80267408
:10226000BAF1000F64D095F8D030012B70D0012165
:102270002046FFF7A7FF302383F3118862691368B4
:1022800023F0020313606269136843F001031360D3
:10229000636900275F6187F3118801212046FFF7FA
:1022A000E3FD002800F09580E86DFFF785FA04F55E
:1022B0008359BA4609F10809202200216846FEF731
:1022C00043FF02A8FFF76EFCCDF818A06A4609EBA1
:1022D00007030DF1180E9446BCE80300F44518609E
:1022E0005960624603F10803F5D1DCF8000018607C
:1022F00020379CF804201A71602FDDD195F8C83082
:102300006FF38203002785F8C8306A4641462046AD
:10231000ADF80070ADF802708DF80470FFF74AFD5B
:10232000636948BB4FF400421A6008B0BDE8F0870B
:1023300041F2D80002F08CFB814610B15146FFF704
:10234000D7FCC7F80090B9F1000F8CD10020ECE762
:10235000386803681B6B98470146002887D13868A6
:10236000FFF730FF3868036832465B68414698479C
:1023700000287FF47CAFE9E761221A609DF8023003
:102380009DF803201B06120402F4702203F0407330
:102390001343BDF80020C2F3090213439DF8042043
:1023A0001205022E02F4E0020CBF4FF000410021A2
:1023B000134362690B43D361636913225A616269F3
:1023C000136823F00103136039462046FFF74CFDE4
:1023D00008B96369A6E795F8D03093BB6169D1F875
:1023E000002242F00102C1F800226169D1F8002206
:1023F00022F47C5222F00E02C1F800226169D1F869
:10240000002242F46062C1F800226269C2F814320C
:102410006269C2F80432626941F6FF71C2F80C12B7
:102420006269C2F840326269C2F8443263690122CB
:10243000C3F81C226269D2F8003223F00103C2F80B
:10244000003295F8C83043F0020385F8C8306CE7D5
:102450001838002008B500F051F850EA0103024690
:1024600002D0421E61F10001044B186810B10B4606
:10247000FFF72EFDBDE8084001F07CB818380020B9
:1024800008B50020FFF7E0FDBDE8084001F072B894
:1024900008B50120FFF7D8FDBDE8084001F06AB893
:1024A00000B59BB0EFF3098168226846FEF73AFE5B
:1024B000EFF30583014B9B6BFEE700BF00ED00E0EF
:1024C00008B5FFF7EDFF000000B59BB0EFF3098101
:1024D00068226846FEF726FEEFF30583014B5B6B2F
:1024E000FEE700BF00ED00E0FEE700000FB408B516
:1024F000029801F025F9FEE701F0A6BB01F052BBFE
:1025000013B56C4684E80600031D94E8030083E8D5
:102510000500012002B010BD73B58568019155B169
:102520001B885B0707D4D0E900369B6B9847019A5C
:10253000C1B23046A847012002B070BDF0B5866830
:1025400089B005460C465EB1BDF838305B070AD449
:10255000D0E900379B6B98472246C1B23846B04756
:10256000012009B0F0BD00220023CDE900230023A3
:10257000ADF808300A4603AB01F10806106851684F
:102580001C4603C40832B2422346F7D110682060CB
:102590009288A280FFF7B2FF0423ADF808302B68C1
:1025A000CDE90001DB6B694628469847D8E7000073
:1025B00030B503680968DD0FB5EBD17F23F06044C7
:1025C00021F060424FEAD1700BD0002BB8BFA40CB1
:1025D0000029B8BF920C944202D034BF01200020E1
:1025E00030BD944205D1C1F38070C3F38073834240
:1025F000F6D194422CBF00200120F1E72DE9F041F3
:10260000456A15B94162BDE8F0814B6823F0604727
:10261000C3F38A464FEAD37EC3F3807816EA2306D3
:1026200038BF3E46AC462B465A68BEEBD27F22F0FE
:1026300060440AD0002A18DAA40CB44217D19D4293
:102640000FD10D60DEE71346EEE7A74207D102F097
:102650008044C2F3807242450BD054B1EFE708D2F8
:10266000EDE7CCF800100B60CDE7B44201D0B442E6
:10267000E5D81A689C46002AE5D11960C3E7000036
:102680002DE9F047089D01F007044FEAD5082244E0
:1026900005F0070500EBD1004FF47F49944201D1CA
:1026A000BDE8F08704F0070705F0070A57453E46E6
:1026B00038BF5646C6F10806111B8E4228BF0E468B
:1026C000E10808EBD50E415C13F80EC0B94029FAB9
:1026D00006F721FA0AF1FFB28CEA010147FA0AF77C
:1026E00039408CEA010C03F80EC034443544D5E778
:1026F00080EA0120082341F2210201B240000029B2
:1027000080B203F1FF33B8BF504013F0FF03F4D1A0
:102710007047000038B50C468D18A54200D138BD71
:1027200014F8011BFFF7E4FFF7E7000042684AB125
:10273000136843604389818901339BB29942438185
:1027400038BF83811046704770B588B02022044698
:102750000D4668460021FEF7F7FC20460495FFF77A
:10276000E5FF024658B16B46054608AE1C4603CC51
:10277000B44228606960234605F10805F6D1104689
:1027800008B070BD082817D909280CD00A280CD029
:102790000B280CD00C280CD00D280CD00E2814BF00
:1027A0004020302070470C207047102070471420C4
:1027B000704718207047202070470000082817D95C
:1027C0000C280CD910280CD914280CD918280CD98D
:1027D00020280CD930288CBF0F200E2070470920EC
:1027E00070470A2070470B2070470C2070470D205F
:1027F000704700002DE9F843078C072F04461ED9C7
:10280000D0E9029800254FF6FF73C5F12006A5F127
:10281000200029FA05F108FA06F628FA00F03143FB
:102820000143C9B21846FFF763FF0835402D034640
:10283000EBD1E1693A46BDE8F843FFF76BBF4FF6CD
:10284000FF70BDE8F883000010B54B6823B9CA8A51
:1028500063F30902CA8210BD04691A681C6003612F
:10286000C38A013BC3824A60EFE700002DE9F84FBD
:102870001D46CB8A0F46C3F30901052981469246BE
:102880000B4630D00020AAB207F11A049EB2042EE3
:102890001FFA80F80FD8904503F1010306D3FB8A95
:1028A0000A4462F30903FB8201201AE01AF800606F
:1028B000E6540130EAE79045F1D2A1F1050B1C2363
:1028C0007C68BBFBF3F203FB12BB1FFA8BF6002CF8
:1028D00045D14846FFF72AFF044638B978606FF0C3
:1028E0000200BDE8F88F4FF00008E6E7002606601A
:1028F0007860ADB24FF0000B454510D90AEB0803E4
:10290000221D13F8011B9155B1B208F101081B29D2
:102910001FFA88F82BD0454506F10106F1D8FB8A4D
:10292000C3F30902154465F30903BCE7013292B20F
:102930001C462368002BF9D16B1F0B441C21B3FBF1
:10294000F1F301339BB29A42D3D2BBF1000FD0D145
:102950004846FFF7EBFE20B9C4F800B0BFE70122FC
:10296000E7E7C0F800B05E4620600446C1E7454591
:10297000D5D94846FFF7DAFE08B92060AFE7C0F8BE
:1029800000B0002620600446B6E700002DE9F04FB5
:102990002DED028B1C4683B05B6901920746884689
:1029A000002B00F0A780238C2BB1E269002A00F0F5
:1029B000A180072B35D807F10C00FFF7B7FE0546BD
:1029C00038B96FF00205284603B0BDEC028BBDE8B4
:1029D000F08F14220021FEF7B7FB228CE16905F18C
:1029E0000800FEF79FFB208C013080B2FFF7E6FE67
:1029F000FFF7C8FE013880B2208401302874636973
:102A0000228C1B782A4403F01F0363F03F0348F035
:102A100000411372384669602946FFF7EFFD012532
:102A2000D1E702339BB20722C18A0633B3FBF2F32C
:102A3000828A521A9BB292B29342C2D800F10C031E
:102A40004FF0000908EE103A4FF0800A4E464D460E
:102A500018EE100AFFF76AFE83460028B1D0142250
:102A60000021FEF771FB002E3AD1019BABF8083034
:102A700002220BF1080E1FFA82FC0CF10100BCF1DE
:102A8000060F218C80B201D88E422BD3FFF796FE21
:102A9000FFF778FE62691278013802F01F028E4259
:102AA00008BF4FF0400A42EA49121BFA80F14AEA95
:102AB000020A013048F0004281F808A08BF81000AB
:102AC000CBF8042059463846FFF798FD238C013592
:102AD000B3422DB289F001094FF0000AB8D172E774
:102AE0000022C6E7E169895D0EF802100136B6B230
:102AF0000132C0E76FF0010565E70000F8B5154643
:102B00000E463022002104461F46FEF71DFB069BA1
:102B10006360B5F5001F079BA76034BF6A094FF6D5
:102B2000FF72A36297B2E66104F1100000239A429B
:102B300006D800230360A782E3822383E360F8BD05
:102B40000660013330462036F1E7000003781BB9F8
:102B50004BB2002BC8BF017070470000007870476F
:102B6000F8B50C46C969074611B9238C002B37D13B
:102B7000257E1F2D34D8387828BB228C072A2CD8E4
:102B8000268A36F003032BD14FF6FF70FFF7C2FD04
:102B900020F001003102400441EA0561400C41EAA5
:102BA00040254FF6FF72234629463846FFF7EEFED2
:102BB000002807DD626913780133DBB21F2B88BF61
:102BC00000231370F8BD218A2D0645EA012505432F
:102BD0002046FFF70FFE0246E5E76FF00300F1E73E
:102BE0006FF00100EEE7000070B58AB004461646AB
:102BF0000021282268461D46FEF7A6FABDF83830A7
:102C0000ADF810300F9B05939DF840308DF81830CB
:102C1000119B07936946BDF84830ADF82030204637
:102C2000CDE90265FFF79CFF0AB070BD2DE9F041C8
:102C3000D36905460C4616460BB9138C5BBB377E31
:102C40001F2F28D895F80080B8F1000F26D0304605
:102C5000FFF7D0FD3378210241EAC33141EA080190
:102C6000338A41EA076141EA03410246334641F0B3
:102C700080012846FFF78AFE00280ADD3378012B01
:102C800007D1726913780133DBB21F2B88BF002391
:102C90001370BDE8F0816FF00100FAE76FF00300F8
:102CA000F7E70000F0B58BB004460D46174600214B
:102CB000282268461E46FEF747FA9DF84C305A1EF9
:102CC000534253418DF800309DF84030ADF810303C
:102CD000119B05939DF848308DF81830149B07938D
:102CE0006A46BDF85430ADF8203029462046CDE97B
:102CF0000276FFF79BFF0BB0F0BD0000406A00B109
:102D000004307047436A1A68426202691A600361BC
:102D1000C38A013BC38270472DE9F041D0F820807F
:102D2000194E14461D464146002709B9BDE8F081F9
:102D3000D1E90223A21A65EB0303964277EB030362
:102D40001ED2036A8B420DD1FFF77EFD036A1B681A
:102D5000036203690B60C38A0161016A013BC3829C
:102D60008846E2E7FFF770FD0B68C8F8003003699A
:102D70000B60C38A0161013BC382D8F80010D4E71D
:102D800088460968D1E700BF80841E002DE9F04F16
:102D90008BB00D46DDF8509014469B4680460028C7
:102DA00000F01981B9F1000F00F01581531E3F2B7F
:102DB00000F21181012A03D1BBF1000F40F00B8119
:102DC0000023CDE90833B8F81430B5EBC30F4FEA50
:102DD000C30703D300200BB0BDE8F08F2B199F422F
:102DE000D8F80C303ABF7F1BFFB227461BB9D8F882
:102DF0001030002B7AD0272D4ED8C5F12806B742C7
:102E00004FF000032CBFF6B23E4600932946D8F897
:102E1000080008AB3246FFF733FCA7EB060A35443F
:102E20005FFA8AFAB8F8143003F10053053BDB006F
:102E30000493D8F80C3003932821039B13B1BAF103
:102E4000000F2CD1D8F8100040B1BAF1000F05D016
:102E5000009608AB5246691AFFF712FC38B2002FF1
:102E6000B8D066070AD00AAB03EBD401624211F86E
:102E7000083C02F00702134101F8083C082C3CD939
:102E8000102C40F2B580202C40F2B780BBF1000F2F
:102E900000F09C80082334E0BA460026C2E7049B79
:102EA000E02B28BFE02306930B44AB42059314D9D3
:102EB0005A1B03980096924534BF5246D2B2691A03
:102EC00008AB04300792FFF7DBFB079A1644AAEB26
:102ED000020A1544F6B25FFA8AFA049B069A05992B
:102EE0009B1A0493039B1B680393A6E70093D8F8EF
:102EF000080008AB3A462946AEE7BBF1000F13D0F5
:102F00000123B4EBC30F6CD0082C12D89DF82030ED
:102F1000621E23FA02F2D50706D54FF0FF3202FAFD
:102F200004F423438DF820309DF8203089F80030D8
:102F300051E7102C12D8BDF82030621E23FA02F29D
:102F4000D10706D54FF0FF3202FA04F42343ADF85F
:102F50002030BDF82030A9F800303CE7202C0FD8F5
:102F60000899631E21FA03F3DA0705D54FF0FF3203
:102F700002FA04F40C430894089BC9F800302AE7CD
:102F8000402C2BD0DDE90865611EC4F12102A4F1BB
:102F9000210326FA01F105FA02F225FA03F311439F
:102FA0001943CB0712D50122A4F12003C4F120015B
:102FB00002FA03F322FA01F1A240524243EA01036A
:102FC00063EB430332432B43CDE90823DDE90823B8
:102FD000C9E90023FFE66FF00100FCE66FF008008E
:102FE000F9E6082CA0D9102CB3D9202CEED8C3E7D1
:102FF000BBF1000FADD0022383E7BBF1000FBBD0C4
:1030000004237EE730B5012A144638BF0124402C42
:1030100085B028BF40240025012ACDE9025518D8E3
:103020001B788DF8083063070AD004AB03EBD40596
:10303000624215F8083C02F00702934005F8083C8C
:10304000009103462246002102A8FFF719FB05B0B4
:1030500030BD082AE4D9102A03D81B88ADF80830FF
:10306000E1E7202A8DBFD3E900231B680293CDE955
:103070000223D8E710B5CB681BB98B600B618B823C
:1030800010BD04691A681C600361C38A013BC382D6
:10309000CA60F0E703064CBFC0F3C030022070479F
:1030A00008B50246FFF7F6FF022806D15306C2F321
:1030B0000F2001D100F0030008BDC2F30740FBE779
:1030C0002DE9F04F93B0CDE903230A68044610467A
:1030D000FFF7E0FF022814BFC2F306260026002AED
:1030E0000D46824680F2F78112F0C04940F0F3812C
:1030F000097B002900F0EF81022803D02378B34236
:1031000040F0EC81C2F304630693104602F07F03A3
:103110000593FFF7C5FF059B29444FEA834848EA1A
:103120000A4848EA4668CE7800230022CDE9082301
:10313000F309834648EA0008029367D0059B009391
:1031400002466768534608A92046B847002800F0A1
:10315000C881276A4FB9414604F10C00FFF7F4FA21
:10316000074690B96FF0020054E03B6998450DD0D6
:103170003F68002FF9D1414604F10C00FFF7E4FA53
:1031800007460028EED0236A3B60276297F817C0F5
:1031900006F01F08CCF3840CACEB08001FFA80FE8D
:1031A0000028B8BF0EF12000A8EB0C031FFA83FE25
:1031B000D7E90221B8BF00B2002B0793BEBF0EF1C2
:1031C00020031BB2079352EA010338D0039BDFF8B8
:1031D00024E39A1A049B4FF0000C63EB010196451F
:1031E0007CEB01032BD36B7B97F81AE0734519D165
:1031F000029B002B78D0012821DC7868F8B9DFF831
:10320000F0C2944570EB010316D337E0276A27B963
:103210006FF00C0013B0BDE8F08F3B699845B5D056
:103220003F68F4E7B24890427CEB010301D30020F1
:10323000F0E7029B002BFAD0079B0F2B17DCFA7DDF
:10324000B30002F0030203F07C031343FB7539461D
:103250002046FFF7F9FA6B7BBB76029B3BB9FB7DFF
:10326000C3F38402013262F38603FB75D0E76A7B05
:10327000BB7E9A42DBD1029B002B35D0B309022BD7
:1032800032D0039BBB60049BFB60142200210DA87D
:10329000FDF75AFF039B0A93049B0B932B1D0C9382
:1032A0002B7BADF83EB0013BDBB2ADF83C30069B6A
:1032B0008DF84230059B8DF8433094F82C308DF812
:1032C00040A083F001038DF844308DF84180A3685D
:1032D0000AA920469847FB7DC3F38403013303F01A
:1032E0001F039B02FB82A2E7FB7DC6F34012B2EBF9
:1032F000D31F40F0F980C3F38403434540F0FC80C2
:10330000029A2B7BB609002A52D016F0010661D131
:10331000032B40F2F480039BBB60049BFB60FB8AA1
:1033200066F30903FB822B7BAE1D033BDBB2324607
:10333000394604F10C00FFF799FA00280CDA3946F7
:103340002046FFF781FAFB7DC3F38403013303F0CA
:103350001F039B02FB8205E7DDE90884AB883B8302
:103360004FF6FF73C9F12000A9F1200228FA09F1F4
:1033700004FA00F0014324FA02F211431846C9B2DC
:10338000FFF7B6F909F10809B9F1400F0346E9D191
:10339000B8822A7B033AD2B23146FFF7BBF9FB7DF4
:1033A000B882DA43C2F3C01262F3C713FB753EE77B
:1033B00086B92E1D013BDBB23246394604F10C00C2
:1033C000FFF754FA0028BADB2A7BB88A013AD2B256
:1033D0003146E2E7F98AC1F30901013B0429DAB277
:1033E0005BD8281D002307F11B069A4208D910F864
:1033F00001CB06F801C0013101330529DBB2F4D15C
:1034000003990A9104990B91934207F11B010C91C6
:1034100038BF043379680D9134BF55FA83F3002324
:103420000E93FB8AADF83EB0C3F309031A44069B22
:103430008DF84230059B8DF8433094F82C30ADF870
:103440003C2083F001038DF8443000238DF840A028
:103450008DF841807B602A7BB88A013A291DFFF7ED
:1034600059F93B8BB882834203D1A3680AA920464D
:10347000984720460AA9FFF7FDFDFB7DBA8AC3F3F2
:103480008403013303F01F039B02FB823B8B9A42B0
:103490000CBF00206FF01000BCE67B68002BAFD0A3
:1034A000052001E01C3033461E68002EFAD1091AAF
:1034B000081D2E1D184401EB090CBCF11B0F5FFA0F
:1034C00089F39DD89A429BD916F8013B00F8013B3D
:1034D00009F10109EFE76FF009009BE66FF00A00C0
:1034E00098E66FF00B0095E66FF00D0092E600BFD6
:1034F00040420F0080841E006FF00E008AE66FF0DD
:103500000F0087E6EFF3098305494A6B22F00102B9
:103510004A63683383F30988002383F31188704773
:1035200000EF00E0302080F3118862B60D4B0E4AA8
:10353000D96821F4E0610904090C0A43DA60D3F880
:10354000FC200A4942F08072C3F8FC20084AC2F805
:10355000B01F116841F0010111602022DA7783F871
:103560002200704700ED00E00003FA0555CEACC51F
:10357000001000E010B5302383F311880E4B5B6818
:1035800013F4006314D0F1EE103AEFF30984683CB1
:103590004FF08073E361094BDB6B236684F309888A
:1035A00000F098F810B1064BA36110BD054BFBE786
:1035B00083F31188F9E700BF00ED00E000EF00E0C1
:1035C0005F0300086203000800F1604303F56143F4
:1035D0000901C9B283F80013012200F01F039A40C9
:1035E00043099B0003F1604303F56143C3F8802165
:1035F0001A60704700F16040090100F56D40C9B2E2
:103600000176704700230375826803691B68996817
:103610009142FBD25A680360426010605860704764
:1036200000230375826803691B6899689142FBD87F
:103630005A680360426010605860704708B50846D9
:10364000302383F311880B7D032B05D0042B0DD081
:103650002BB983F3118808BD8B6900221A604FF0E3
:10366000FF338361FFF7CEFF0023F2E7D1E9003299
:1036700013605A60F3E70000FFF7C4BF054BD96839
:103680000875186802681A60536001220275D860D4
:10369000FCF750BE2838002030B50C4BDD684B1CC1
:1036A00087B004460FD02B46094A684600F0D8F888
:1036B0002046FFF7E3FF009B13B1684600F0DAF8FD
:1036C000A86907B030BDFFF7D9FFF9E72838002017
:1036D0003D360008044B1A68DB6890689B68984286
:1036E00094BF00200120704728380020084B10B5F7
:1036F0001C68D86822681A60536001222275DC6059
:10370000FFF78EFF01462046BDE81040FCF712BED1
:103710002838002038B5074C074908480123002500
:103720002370656000F006FC0223237085F3118886
:1037300038BD00BF503A00207C4C000828380020DB
:1037400008B572B6044B186500F002FA00F01AFBD7
:10375000024B03221A70FEE728380020503A00205E
:1037600000F09AB88B60022308618B82084670478C
:103770008368A3F1840243F8142C026943F8442CB3
:10378000426943F8402C094A43F8242CC26843F8A4
:10379000182C022203F80C2C002203F80B2C044AEC
:1037A00043F8102CA3F12000704700BF4D03000820
:1037B0002838002008B5FFF7DBFFBDE80840FFF719
:1037C0005BBF0000024BDB6898610F20FFF756BF1C
:1037D00028380020302383F31188FFF7F3BF00005F
:1037E00008B50146302383F311880820FFF754FF02
:1037F000002383F3118808BD064BDB6839B14268AA
:1038000018605A60136043600420FFF745BF4FF013
:10381000FF307047283800200368984206D01A68A5
:103820000260506099611846FFF726BF704700009C
:1038300010B50A4C23699A6891420CD85A68816085
:103840000360426010609A685860511A99604FF0A6
:10385000FF33A36110BD1B68891AECE728380020EC
:1038600010B4C0E9032300235DF8044B4361FFF764
:10387000DFBF0000036881689A680A449A60426862
:1038800013605A6000230360024B4FF0FF329A61CD
:10389000704700BF2838002070B5124DEB692A46EA
:1038A0000133EB6152F8103F934206D09A68013A17
:1038B0009A6030262C69A36803B170BDD4E9002159
:1038C0000A605160236083F31188D4E903312046F4
:1038D000984786F3118861690029EBD02046FFF7ED
:1038E000A7FFE7E728380020054A30B5D369D2E9B9
:1038F00008451B1B181945F10001C2E9080130BD3C
:103900002838002000207047FEE7000070470000C4
:103910004FF0FF3070470000BFF34F8F024AD3686B
:10392000DB03FCD4704700BF003C024008B5074BE6
:103930001B7853B9FFF7F0FF054B1A69002ABFBF88
:10394000044A5A6002F188325A6008BD583A002091
:10395000003C02402301674508B5054B1B7833B98D
:10396000FFF7DAFF034A136943F00043136108BD10
:10397000583A0020003C02400728F0B516D80C4CFD
:103980000C4923787BB90C4D0E4608234FF000629A
:1039900055F8047B46F8042B013B13F0FF033A442F
:1039A000F6D10123237051F82000F0BD0020FCE780
:1039B0007C3A00205C3A0020884C0008014B53F808
:1039C00020007047884C000808207047072810B571
:1039D000044601D9002010BDFFF7CEFF064B53F877
:1039E00024301844C21A0BB90120F4E712680132DE
:1039F000F0D1043BF6E700BF884C0008072810B55B
:103A0000044621D8FFF788FFFFF790FF0F4AF32302
:103A1000D360C300DBB243F4007343F002031361CD
:103A2000136943F480331361FFF776FFFFF7A4FFB8
:103A3000074B53F8241000F081F9FFF78DFF204663
:103A4000BDE81040FFF7C2BF002010BD003C02409F
:103A5000884C0008F8B512F00103144642D18518CD
:103A60002E4A954257D82E4B1B6813F0010352D0B3
:103A70002C4DFFF75BFFF323EB60FFF74DFF40F2A8
:103A80000127032C15D824F001046618254C401A90
:103A900040F20117B142236900EB010524D123F064
:103AA00001032361FFF758FF0120F8BD043C0430F7
:103AB000E7E78307E7D12B6923F440732B612B6978
:103AC0003B432B6151F8046B0660BFF34F8FFFF748
:103AD00023FF03689E42E9D02B6923F001032B6189
:103AE000FFF73AFF0020E0E723F4407323612369E6
:103AF0003B4323610B882B80BFF34F8FFFF70CFFF5
:103B00002D8831F8023BADB2AB42C3D0236923F01C
:103B100001032361E4E71846C7E700BF0000080877
:103B200000380240003C0240084908B50B7828B133
:103B30001BB9FFF7FBFE01230B7008BD002BFCD067
:103B4000BDE808400870FFF707BF00BF583A0020E3
:103B500008B50B484FF47F4100F002F909484FF4D3
:103B6000303100F0FDF808484FF4804100F0F8F8DB
:103B7000BDE808404FF470514FF4805000F0F0B8A9
:103B8000000100200000012000C00320084611466B
:103B900000F080BF012000F07DBF0000084600F06B
:103BA00097BF000038B5EFF31185BDBBEFF3058477
:103BB000C4F308043023C4B183F31188FFF794FEE3
:103BC0004C014201121A44EAD06464EB01049300F0
:103BD000A4001B1844EA927441EB0401C900D80008
:103BE00041EA537185F3118838BD83F31188FFF7DB
:103BF0007BFE4D014201121A45EAD06565EB0105D5
:103C00009300AD001B1845EA927541EB0501C90010
:103C1000D80041EA537184F3118838BDFFF764FE80
:103C20004B014401241A43EAD06363EB0103A20071
:103C30009B00121843EA947341EB0301C900D000C2
:103C400041EA527138BD00BF38B5FFF7ABFF114CE8
:103C5000114AC00840EA4170A0FB025EC908A0FBFF
:103C6000040C1CEB050CA1FB04404FF000035B416E
:103C7000A1FB02121CEB040C43EB000011EB0E0144
:103C800042F10002411842F10000090941EA0070C6
:103C900038BD00BFCFF753E3A59BC42010B5024445
:103CA000064BD2B2904200D110BD441C00B253F872
:103CB000200041F8040BE0B2F4E700BF50280040B8
:103CC0000F4B30B51C6F240407D41C6F44F40074F0
:103CD0001C671C6F44F400441C670A4C236843F4BF
:103CE000807323600244084BD2B2904200D130BDB1
:103CF000441C00B251F8045B43F82050E0B2F4E7F2
:103D000000380240007000405028004007B50122F2
:103D100001A90020FFF7C2FF019803B05DF804FB82
:103D200013B50446FFF7F2FFA04205D0012201A916
:103D300000200194FFF7C4FF02B010BD0144BFF39F
:103D40004F8F064B884204D3BFF34F8FBFF36F8F63
:103D50007047C3F85C022030F4E700BF00ED00E0DC
:103D60000144BFF34F8F064B884204D3BFF34F8FFC
:103D7000BFF36F8F7047C3F870022030F4E700BFC5
:103D800000ED00E070470000074B45F255521A6005
:103D900002225A6040F6FF729A604CF6CC421A60DA
:103DA000024B01221A70704700300040843A002014
:103DB000034B1B781BB1034B4AF6AA221A607047CB
:103DC000843A002000300040034B1A681AB9034AB5
:103DD000D2F874281A607047803A00200030024000
:103DE000024B4FF08072C3F87428704700300240D5
:103DF00008B5FFF7E9FF024B1868C0F3407008BD33
:103E0000803A002008B5FFF7DFFF024B1868C0F3C7
:103E1000007008BD803A002070B5BFF34F8FBFF32C
:103E20006F8F1A4A0021C2F85012BFF34F8FBFF3B1
:103E30006F8F536943F400335361BFF34F8FBFF368
:103E40006F8FC2F88410BFF34F8FD2F88030C3F366
:103E5000C900C3F34E335B0143F6E07403EA040682
:103E6000014646EA81750139C2F86052F9D2203B19
:103E700013F1200FF2D1BFF34F8F536943F4803316
:103E80005361BFF34F8FBFF36F8F70BD00ED00E044
:103E9000FEE7000070B5214B2148224A904237D3FB
:103EA000214BDA1C121AC11E22F003028B4238BFCA
:103EB00000220021FDF748F91C4A0023C2F8843093
:103EC000BFF34F8FD2F88030C3F3C900C3F34E3332
:103ED0005B0143F6E07403EA0406014646EA817595
:103EE0000139C2F86C52F9D2203B13F1200FF2D104
:103EF000BFF34F8FBFF36F8FBFF34F8FBFF36F8F42
:103F00000023C2F85032BFF34F8FBFF36F8F70BDE5
:103F100053F8041B40F8041BC0E700BF584E0008CC
:103F2000143D0020143D0020143D002000ED00E071
:103F3000FEE7000070B51B4B01630025044686B008
:103F4000586085620E46FFF7EDFA04F11003C4E9EC
:103F500004334FF0FF33A361134BE561D969A560CA
:103F60000A462B46C4E9082304F13401C4E900449D
:103F70000E4AE562256580232046FFF7F3FB012307
:103F8000E0600B4A0375009272680192B268CDE955
:103F90000223084B6846CDE90435FFF70BFC06B059
:103FA00070BD00BF503A002028380020A84C0008FF
:103FB000AD4C0008313F00084B6843608B6883605C
:103FC000CB68C3600B6943614B6903628B694362D1
:103FD0000B6803607047000008B5264B26481A6935
:103FE00040F2FF110A431A611A6922F4FF7222F0AB
:103FF00001021A611A691A6B0A431A631A6D0A439D
:104000001A651E4A1B6D1146FFF7D6FF02F11C010F
:1040100000F58060FFF7D0FF02F1380100F5806005
:10402000FFF7CAFF02F1540100F58060FFF7C4FFFB
:1040300002F1700100F58060FFF7BEFF02F18C0114
:1040400000F58060FFF7B8FF02F1A80100F580607D
:10405000FFF7B2FF02F1C40100F58060FFF7ACFF8B
:1040600002F1E00100F58060FFF7A6FFBDE808401F
:1040700000F04EB80038024000000240B44C000886
:1040800008B500F0D7F9FFF745FBBDE80840FFF79A
:104090009BBE0000704700001B4B1A696FEAC252BA
:1040A0006FEAD2521A611A69C2F308021A614FF01C
:1040B000FF301A695A69586100215A6959615A6971
:1040C0001A6A62F080521A621A6A02F080521A6208
:1040D0001A6A5A6A58625A6A59625A6A0B4A1068CE
:1040E00040F480701060186F00F44070B0F5007FED
:1040F0001EBF4FF4803018671967536823F40073AC
:10410000536000F06BB900BF0038024000700040FF
:10411000364B374A1A64374A4FF4404111601A68E7
:1041200042F001021A601A689207FCD59A6822F0E0
:1041300003029A602D4B9A6812F00C02FBD11968A9
:1041400001F0F90119609A601A6842F480321A602D
:104150001A689003FCD55A6F42F001025A67234B4C
:104160005A6F9107FCD5244A5A601A6842F080724F
:104170001A60204B5A685204FCD51A6842F4803207
:104180001A605A68D003FCD51A6842F400321A60EB
:10419000184A53689903FCD5144B1A689201FCD550
:1041A000164A9A6040F20112C3F88C200022C3F82C
:1041B0009020134A40F207331360136803F00F0393
:1041C000072BFAD1094B9A6842F002029A609A686A
:1041D00002F00C02082AFAD15A6C42F480425A6466
:1041E0005A6E42F480425A665B6E70470038024055
:1041F0000004001000700040106C400900948838E2
:10420000003C0240074A08B5536903F001035361BB
:1042100023B1054A13680BB150689847BDE80840C0
:10422000FFF7A8B9003C0140883A0020074A08B5CA
:10423000536903F00203536123B1054A93680BB13C
:10424000D0689847BDE80840FFF794B9003C0140AA
:10425000883A0020074A08B5536903F00403536104
:1042600023B1054A13690BB150699847BDE808406E
:10427000FFF780B9003C0140883A0020074A08B5A2
:10428000536903F00803536123B1054A93690BB1E5
:10429000D0699847BDE80840FFF76CB9003C014081
:1042A000883A0020074A08B5536903F010035361A8
:1042B00023B1054A136A0BB1506A9847BDE808401C
:1042C000FFF758B9003C0140883A0020164B10B562
:1042D0005C6904F478725A61A30604D5134A936AA0
:1042E0000BB1D06A9847600604D5104A136B0BB126
:1042F000506B9847210604D50C4A936B0BB1D06BD9
:104300009847E20504D5094A136C0BB1506C9847E5
:10431000A30504D5054A936C0BB1D06C9847BDE852
:104320001040FFF727B900BF003C0140883A002049
:10433000194B10B55C6904F47C425A61620504D5DE
:10434000164A136D0BB1506D9847230504D5134AD7
:10435000936D0BB1D06D9847E00404D50F4A136EEE
:104360000BB1506E9847A10404D50C4A936E0BB163
:10437000D06E9847620404D5084A136F0BB1506F92
:104380009847230404D5054A936F0BB1D06F984723
:10439000BDE81040FFF7EEB8003C0140883A00202D
:1043A00008B5034800F06CF9BDE80840FFF7E2B833
:1043B000083B002008B5034800F062F9BDE808405A
:1043C000FFF7D8B8743B002008B5034800F058F94F
:1043D000BDE80840FFF7CEB8E03B0020062108B555
:1043E0000846FFF7F1F806210720FFF7EDF8062150
:1043F0000820FFF7E9F806210920FFF7E5F8062174
:104400000A20FFF7E1F806211720FFF7DDF8062163
:104410002820FFF7D9F80C212520FFF7D5F80C212B
:104420002620FFF7D1F8BDE808400C212720FFF730
:10443000CBB8000008B5FFF72FFE00F067F800F0DA
:104440003DF8FFF727FEBDE8084000F05DB800002A
:10445000026843681143016003B1184770470000C8
:10446000143000F03BBA00004FF0FF33143000F07E
:1044700035BA0000383000F0B1BA00004FF0FF3319
:10448000383000F0ABBA0000143000F001BA000080
:104490004FF0FF31143000F0FBB90000383000F06D
:1044A0005BBA00004FF0FF32383000F055BA000020
:1044B000012914BF6FF013000020704700F074B89A
:1044C000044B03600023C0E90233436001230374FB
:1044D000704700BFB04D000838B5C36904460D46AB
:1044E0001BB904210844FFF7B3FF294604F1140067
:1044F00000F0B2F9002806DA201D4FF40061BDE893
:104500003840FFF7A5BF38BD00F00EB80023054ABC
:1045100019460133102BC2E9001102F10802F8D14B
:10452000704700BF883A00204FF0E023044A5A61E8
:1045300000229A6107221A6108210B20FFF75AB85E
:10454000BF4B030008B5302383F31188FFF708F948
:10455000002383F3118808BD08B5FFF7F3FFBDE81A
:104560000840FFF707B80000026843681143016084
:1045700003B1184770470000024A136843F0C003B4
:104580001360704700100140024A136843F0C003F3
:104590001360704700440040024A136843F0C003B0
:1045A000136070470048004037B5244C244D204626
:1045B000FFF786FF009404F1140022490023202213
:1045C00000F03CF92049009404F138001F4B2022F0
:1045D00000F0B6F91E4A1F4BC4E917231E4C2046B3
:1045E000FFF76EFF009404F114001C490023202201
:1045F00000F024F91A490094202204F13800194BE4
:1046000000F09EF9184BC4E91735184C2046FFF707
:1046100057FF04F11400164900940023202200F0F3
:104620000DF9144B14490094202204F1380000F0D5
:1046300087F9124BC4E9173503B030BD083B0020A1
:1046400080F937034C3C0020AC3C00207945000841
:104650000010014000F36F06743B00206C3C00200A
:10466000CC3C00208945000800440040E03B00208D
:104670008C3C002099450008EC3C0020004800409C
:104680002DE9F047C66D3768F469346221070546A5
:1046900019D014F0080118BF4FF48071E20748BF29
:1046A00041F02001A30748BF41F04001600748BF27
:1046B00041F08001302383F31188281DFFF754FF58
:1046C000002383F31188E2050AD5302383F3118890
:1046D0004FF48061281DFFF747FF002383F3118803
:1046E0004FF030094FF0000A14F0200838D13B0693
:1046F00016D54FF0300905F1380A200610D589F398
:104700001188504600F050F9002836DA0821281D9B
:10471000FFF72AFF27F080033360002383F311881B
:10472000790614D5620612D5302383F31188D5E9B2
:1047300013239A4208D12B6C33B11021281D27F086
:104740004007FFF711FF3760002383F31188E3066A
:1047500018D5AA6E1369ABB1BDE8F0475069184788
:1047600089F31188736A95F8641028461940FFF799
:10477000B3FE8AF31188F469B6E7B06288F3118852
:10478000F469BAE7BDE8F087F8B5154682680669AE
:10479000AA420B46816938BF8568761AB54204463D
:1047A0000BD218462A46FCF7BDFCA3692B44A36133
:1047B000A3685B1BA3602846F8BD0CD91846324697
:1047C000FCF7B0FCAF1BE1683A463044FCF7AAFCAA
:1047D000E3683B44EBE718462A46FCF7A3FCE36892
:1047E000E5E7000083689342F7B51546044638BFF5
:1047F0008568D0E90460361AB5420BD22A46FCF728
:1048000091FC63692B446361A36828465B1BA3602A
:1048100003B0F0BD0DD932460191FCF783FC01993C
:10482000E068AF1B3A463144FCF77CFCE3683B444C
:10483000E9E72A46FCF776FCE368E4E710B50A44AA
:104840000024C361029B8460C0E90000C0E9051137
:10485000C1600261036210BD08B5D0E90532934220
:1048600001D1826882B98268013282605A1C426139
:104870001970D0E904329A4224BFC3684361002111
:10488000FEF7CAFF002008BD4FF0FF30FBE7000035
:1048900070B5302304460E4683F31188A568A5B190
:1048A000A368A269013BA360531CA3611578226928
:1048B000934224BFE368A361E3690BB120469847A4
:1048C000002383F31188284607E031462046FEF78F
:1048D00093FF0028E2DA85F3118870BD2DE9F74FC8
:1048E00004460E4617469846D0F81C904FF0300A02
:1048F0008AF311884FF0000B154665B12A46314600
:104900002046FFF741FF034660B941462046FEF7C7
:1049100073FF0028F1D0002383F31188781B03B0C4
:10492000BDE8F08FB9F1000F03D001902046C847D1
:10493000019B8BF31188ED1A1E448AF31188DCE782
:10494000C0E90511C160C3611144009B8260C0E9E8
:104950000000016103627047F8B504460D46164633
:10496000302383F31188A768A7B1A368013BA36034
:1049700063695A1C62611D70D4E904329A4224BFF3
:10498000E3686361E3690BB120469847002080F338
:10499000118807E031462046FEF72EFF0028E2DAB4
:1049A00087F31188F8BD0000D0E905239A4210B5BD
:1049B00001D182687AB98268013282605A1C8261B0
:1049C0001C7803699A4224BFC36883610021FEF703
:1049D00023FF204610BD4FF0FF30FBE72DE9F74FD6
:1049E00004460E4617469846D0F81C904FF0300A01
:1049F0008AF311884FF0000B154665B12A463146FF
:104A00002046FFF7EFFE034660B941462046FEF719
:104A1000F3FE0028F1D0002383F31188781B03B044
:104A2000BDE8F08FB9F1000F03D001902046C847D0
:104A3000019B8BF31188ED1A1E448AF31188DCE781
:104A40000B460146184600F02DB8000000F040B8B3
:104A5000012838BF012010B50446204600F030F888
:104A600030B900F007F808B900F00CF88047F4E717
:104A700010BD0000024B1868BFF35B8F704700BF8A
:104A80000C3D002008B5062000F084F80120FEF758
:104A90003BFF0000024B0A4601461868FFF776B854
:104AA0001C11002010B5054C13462CB10A460146D6
:104AB0000220AFF3008010BD2046FCE7000000009C
:104AC000024B01461868FFF765B800BF1C110020B3
:104AD000024B01461868FFF761B800BF1C110020A7
:104AE00010B501390244904201D1002005E003785D
:104AF00011F8014FA34201D0181B10BD0130F2E79D
:104B00002DE9F041A3B1C91A17780144044603F115
:104B1000FF3C8C42204601D9002009E00578BD42C7
:104B200004F10104F5D10CEB0405D618A54201D11E
:104B3000BDE8F08115F8018D16F801EDF045F5D0CE
:104B4000E7E700001F2938B504460D4604D91623AF
:104B500003604FF0FF3038BD426C12B152F8213083
:104B60004BB9204600F030F82A4601462046BDE801
:104B7000384000F017B8012B0AD0591C03D1162376
:104B800003600120E7E7002442F8254028469847C3
:104B90000020E0E7024B01461868FFF7D3BF00BFD3
:104BA0001C11002038B5074D002304460846114665
:104BB0002B60FEF7ADFE431C02D12B6803B12360CE
:104BC00038BD00BF103D0020FEF79CBE034611F823
:104BD000012B03F8012B002AF9D170476F72672E61
:104BE0006172647570696C6F742E414E562D4E6102
:104BF000762D7065726970680000000040A2E4F1D3
:104C0000646891060041A3E5F2656992070000001F
:104C10004261642043414E496661636520696E6468
:104C200065782E00800000000080000000008000F9
:104C30000000000000000000191A000831220008DE
:104C40008D210008591A0008651A0008651C000823
:104C5000291A0008391A00082D1A0008351A000808
:104C6000311A0008891B00083D1A000801250008B8
:104C70004D1A00085D1B000863300000784C0008E6
:104C800080380020503A0020004000000040000022
:104C90000040000000400000000001000000020091
:104CA00000000200000002006D61696E0069646C22
:104CB00065000000A001282800000000FAAABEAA92
:104CC00050001424EFFF0000007700007007000080
:104CD0000000AA0000000000AAAAFAAA00005000E2
:104CE000FFFF0000000000009977000000000000B6
:104CF00000000000AAAAAAAA00000000FFFF00000E
:104D000000000000000000000000000000000000A3
:104D1000AAAAAAAA00000000FFFF000000000000ED
:104D2000000000000000000000000000AAAAAAAADB
:104D300000000000FFFF0000000000000000000075
:104D40000000000000000000AAAAAAAA00000000BB
:104D5000FFFF000000000000000000000000000055
:104D600000000000AAAAAAAA00000000FFFF00009D
:104D70000000000000000000000000000000000033
:104D80000A00000000000000030000000000000016
:104D90000000000000000000000000000000000013
:104DA0000000000000000000000000000000000003
:104DB000000000007D44000869440008A544000884
:104DC000914400089D440008894400087544000887
:104DD00061440008B1440008214E000000000000BA
:104DE000000007000000000040420F00FE2A010002
:104DF000D20400002011002000000000000000008C
:104E000000000000000000000000000000000000A2
:104E10000000000000000000000000000000000092
:104E20000000000000000000000000000000000082
:104E30000000000000000000000000000000000072
:104E40000000000000000000000000000000000062
:084E500000000000000000005A
:00000001FF
